:100000000C945D000C9485000C9485000C94850084
:100010000C9485000C9485000C9485000C9485004C
:100020000C9485000C9485000C9485000C9485003C
:100030000C9485000C9485000C9485000C9485002C
:100040000C947C090C9485000C9484070C945E0736
:100050000C9485000C9485000C9485000C9485000C
:100060000C94D0040C9485000000000800020100EC
:100070000003040700000000000000000000000072
:10008000250028002B0000000000240027002A0083
:10009000040404040404040402020202020203032E
:1000A0000303030301020408102040800102040836
:1000B00010200102040810203E0D11241FBECFEFB6
:1000C000D8E0DEBFCDBF11E0A0E0B1E0E6EAFEE19E
:1000D00002C005900D92AC3CB107D9F723E0ACEC1F
:1000E000B1E001C01D92A638B207E1F710E0CDE5FE
:1000F000D0E004C02197FE010E94030ECC35D10749
:10010000C9F70E94C6090C94510F0C94000021E01D
:1001100001C0220F6A95EAF7DC011C962C931C970C
:100120001A965C934E931997ED91FC910084F1859A
:10013000E02D60E00994DC01ED91FC910284F385EF
:10014000E02D41E0099581E090E00895089508953B
:10015000089581E090E0309114022091130232174B
:1001600010F480E090E09195819591090895809137
:10017000140290911302891730F48F5F8093140258
:1001800080E090E008958FEF9FEF08958091130233
:1001900090E020911402821B9109089585ED8093CF
:1001A000BC008091BC0084FDFCCF10923F020895FA
:1001B0004091EE01262F30E0240F311D2132310510
:1001C000DCF420913F022430C9F4FC0180E090E08F
:1001D000861758F43091EE012191DC01A453BE4FF3
:1001E000A30FB11D2C930196F3CF8091EE01680F00
:1001F0006093EE0180E0089581E0089582E0089523
:10020000CF92DF92EF92FF920F931F93CF93DF93E2
:100210007C01262F972F8A0180914002882391F03C
:10022000C62FD72F6E01C40ED51ECC15DD0571F07B
:100230006991D701ED91FC910190F081E02DC7010A
:100240000995F3CF642F822F0E94D800C801DF9157
:10025000CF911F910F91FF90EF90DF90CF90089575
:10026000CF93DF931F92CDB7DEB769832091400211
:100270002223D1F020916302203240F021E030E0CF
:10028000FC013383228380E090E015C0809141021D
:10029000E82FF0E0EE5BFD4F998190838F5F8093B4
:1002A00041028093630205C061E0CE0101960E9485
:1002B000D80081E090E00F90DF91CF9108950F93E7
:1002C0001F93CF93DF938B01C0E0D0E0FE0183E06A
:1002D000F595E7958A95E1F7E00FF11F808190E0B1
:1002E0009E012770332702C0959587952A95E2F7DE
:1002F00080FF07C06C2F6F5B81E093E00E94F906DE
:1003000004C08CE491E00E94DD072196C031D10544
:10031000E9F6DF91CF911F910F910895FC012381A0
:100320002223B9F09181909569236083828191E0C5
:1003300090934002809362021092410210926302F5
:100340008AE193E00E9430010E945708282F30E094
:1003500002C020E030E081E090E0232B11F080E04B
:1003600090E00895EF92FF920F931F93CF938C012B
:10037000FC01759684E0C0E060FF02C09081C92B4B
:100380006695815031968111F7CF413011F4F80113
:100390004489F8018585C82BC42B7801FEE0EF0E57
:1003A000F11CF80162896C2BC7010E948E01F801D3
:1003B000628960956C23C701CF911F910F91FF90C7
:1003C000EF900C948E010F931F93CF93DF93062F22
:1003D0000F70423019F440E0602F10C0142F262F08
:1003E000EC0130E0B90184E0759567958A95E1F7F5
:1003F000CE010E94B201412F602FCE01DF91CF913B
:100400001F910F910C94B201FC0184858823A9F0FF
:10041000218532852115310519F4611106C007C007
:100420002130310521F4611102C0858701C0158694
:100430006585CF010E960C948E010895CF93DF93BE
:10044000EC0181E090E0088002C0880F991F0A94B7
:10045000E2F78A87EC81FD8180818B8781818C879F
:1004600060E087E00E94D3088C850E941F098B857D
:100470000E941F098A850E941F0961E087E0DF91C1
:10048000CF910C94D308CF92DF92EF92FF920F930B
:100490001F93CF93DF938C01FC01848195810E948F
:1004A0009E0EF801C081D181C280D38082E090E0AD
:1004B0000E94090E7C0125E02C9DC0012D9D900D10
:1004C0001124C80FD91FE296CC0FDD1FCE010E9468
:1004D000F706F7018083CE0101960E94F706F70127
:1004E0008183F801F582E482DF91CF911F910F9112
:1004F000FF90EF90DF90CF900895DC01ED91FC919B
:100500000284F385E02D40E0099461E00E947D02C1
:100510008BE39FE10197F1F708958F929F92AF923D
:10052000BF92CF92DF92EF92FF920F931F93CF93E0
:10053000DF936C01DC011D96ED90FC901E971F96D9
:10054000CD91DC9150979E01D7FF02C0295F3F4FAC
:1005500083E0359527958A95E1F7F701E20FF31FC0
:10056000008110E0CE0168E070E00E94B90D02C089
:10057000159507958A95E2F701701127CE01880F2E
:10058000991FD6011696ED91FC911797E80FF91F68
:10059000A080B18012968D909C9013975196CD902B
:1005A000DC90529781E093E00E9485020E944D0802
:1005B00085E591E00E94DD07BFEF8B1A9B0AC4011D
:1005C0000E9419088BE591E00E94DD07C4010E949A
:1005D000190881E00E94E2078DE591E00E94DD07A5
:1005E00082E00E94E2076C2F6F5B81E093E00E9443
:1005F000F9068AE691E00E94DD07C5010E94DD0749
:1006000060E281E093E00E94F906012B19F481E594
:1006100091E002C08EE491E00E94DD0783E00E9439
:10062000E207B701C601DF91CF911F910F91FF90B3
:10063000EF90DF90CF90BF90AF909F908F900C94F1
:100640005F01CF92DF92EF92FF920F931F93CF93B0
:10065000DF93EC016A8180E090E00E94B607688138
:1006600081E090E00E94B607CE010E941E020C813C
:100670001D81E880F980CA80DB800988DA89C02D75
:1006800081E093E00E9485020E944D0885E591E09B
:100690000E94DD07C60101960E9419088BE591E0D2
:1006A0000E94DD07C70101960E94190883E00E949D
:1006B000E207B801CE01DF91CF911F910F91FF901A
:1006C000EF90DF90CF900C945F012F923F924F926A
:1006D0005F926F927F928F929F92AF92BF92CF92D2
:1006E000DF92EF92FF920F931F93CF93DF93EC0172
:1006F0007A8B698B81E090E00E94090E9C8B8B8B3A
:1007000080E090E00E94F70690E09B838A8381E07E
:1007100090E00E94F70690E09983888382E090E061
:100720000E94F706E82EF12CF986E88684E190E035
:100730000E94090E1C018C01A12CB12CC12CD12CC2
:10074000CE14DF044CF58AE090E00E94090EF80117
:1007500091838083412C512C3501F8EC6F0E711C74
:10076000F80180809180840C951CC301840D951D37
:100770000E94F706F4018083FFEF4F1A5F0A8AE0B8
:100780004816510469F7EFEFCE1ADE0A0E5F1F4FCD
:10079000FAE0AF0EB11CD4CF2E823F82CE010E9470
:1007A0004302CE01DF91CF911F910F91FF90EF9007
:1007B000DF90CF90BF90AF909F908F907F906F9081
:1007C0005F904F903F902F900C9421030F931F93B5
:1007D000CF93DF93EC01423018F08C8188608C83DA
:1007E0004F836887222329F0413019F48C8184607B
:1007F0008C8364E670E080E090E00E9442096C81A6
:1008000064FD31C0E881F9810284F385E02D42E086
:1008100063E0CE0109958BE496E40197F1F7E88156
:10082000F9810284F385E02D42E063E0CE01099571
:1008300003E512E0C8010197F1F7E881F98102842C
:10084000F385E02D42E063E0CE010995C8010197F0
:10085000F1F7E881F9810284F385E02D42E062E05E
:10086000CE01099517C06062CE010E947D028BE423
:1008700096E40197F1F76C816062CE010E947D02DF
:1008800003E512E0C8010197F1F76C816062CE01C7
:100890000E947D02C8010197F1F76C816062CE0170
:1008A0000E947D028BEE90E00197F1F784E08D834A
:1008B0006CE0CE010E947D02CE010E94850282E0A2
:1008C0008E8366E0CE010E947D02E881F98100847A
:1008D000F185E02D6FEFCE01DF91CF911F910F9148
:1008E0000994EF92FF920F931F93CF93DF93EC0144
:1008F000062FF42EE22E8B85888B10921402109214
:100900001302109241021092630210923F0211E012
:1009100010933E021092190261E082E10E94D30816
:1009200061E083E10E94D3088091B9008E7F8093BB
:10093000B9008091B9008D7F8093B90088E48093DD
:10094000B80085E48093BC008889109340028093AE
:10095000620210924102109263020E94570891E0D5
:10096000811190E0998B992329F08AE193E00E940C
:10097000B7008E878989882339F01F861C8260E042
:10098000CE010E960E948E012E2D4F2D602FCE018E
:10099000DF91CF911F910F91FF90EF900C94E603A0
:1009A0001F920F920FB60F9211242F933F934F93E4
:1009B0005F936F937F938F939F93AF93BF93EF93C7
:1009C000FF938091B900887F803609F49CC068F558
:1009D000883209F45BC090F4803109F454C038F4D3
:1009E000882309F4F6C0883009F44DC0F6C0883178
:1009F00009F44CC0803209F45DC0EFC0803409F4C2
:100A000068C048F4803309F455C0883309F0E5C064
:100A100080933D02D8C0803509F44FC0883509F471
:100A20005DC0883409F0D9C0D6C0883909F4C7C080
:100A3000A8F4883709F467C038F4883609F463C02D
:100A4000803709F460C0C9C0883809F4B8C080395B
:100A500009F45FC0803809F0C0C05BC0803B09F476
:100A600086C038F4803A09F466C0883A09F47FC039
:100A7000B4C0803C09F4A7C0883C09F4A4C0883BFA
:100A800009F48AC0AAC080911A0210C090913C0259
:100A900080913B02981770F5E0913C0281E08E0F47
:100AA00080933C02F0E0E55EFD4F80818093BB00C7
:100AB00085EC86C080933D028EC0E0913C0281E0CF
:100AC0008E0F80933C028091BB00F0E0E55EFD4F0D
:100AD000808390913C0280913B026EC0E0913C0289
:100AE00081E08E0F80933C028091BB00F0E0E55ED8
:100AF000FD4F808380913E0281116DC081E0809323
:100B0000190284EA61C083E080933F0210921202CE
:100B1000CFCF80911202803208F051C0E0911202D2
:100B200081E08E0F809312028091BB00F0E0EE50C6
:100B3000FE4F8083BDCF85EC8093BC0010923F02B6
:100B400080911202803230F4E0911202F0E0EE5017
:100B5000FE4F10826091120270E0E091F001F0917E
:100B6000F10182EF91E009951092120236C084E003
:100B700080933F021092EF011092EE01E091EC01A0
:100B8000F091ED0109958091EE01811105C081E0A0
:100B90008093EE011092CC01E091EF0181E08E0F85
:100BA0008093EF01F0E0E453FE4F80818093BB001F
:100BB0009091EF018091EE01981708F479CF85E8C4
:100BC0008093BC000AC085EC8093BC0010923F0269
:100BD00004C010923D020E94CE00FF91EF91BF91A0
:100BE000AF919F918F917F916F915F914F913F91C5
:100BF0002F910F900FBE0F901F901895CF92DF92FC
:100C0000EF92FF920F931F93CF93DF936C017A01C2
:100C10008B01C0E0D0E0CE15DF0589F0D8016D91E1
:100C20008D01D601ED91FC910190F081E02DC6017E
:100C30000995892B11F47E0102C02196ECCFC701E2
:100C4000DF91CF911F910F91FF90EF90DF90CF90A8
:100C50000895FC01918D828D981761F0828DDF01DE
:100C6000A80FB11D5D968C91928D9F5F9F73928F9F
:100C700090E008958FEF9FEF0895FC01918D828D94
:100C8000981731F0828DE80FF11D858D90E0089561
:100C90008FEF9FEF0895FC01918D228D892F90E0B9
:100CA000805C9F4F821B91098F739927089584E67A
:100CB00092E00E944B0621E0892B09F420E0822F6C
:100CC0000895FC01848DDF01A80FB11DA35ABF4F09
:100CD0002C91848D90E001968F739927848FA6893B
:100CE000B7892C93A089B1898C9180648C93938D62
:100CF000848D981306C00288F389E02D80818F7D52
:100D000080830895EF92FF920F931F93CF93DF9309
:100D1000EC0181E0888F9B8D8C8D981305C0E8894C
:100D2000F989808185FD24C0F62E0B8D10E00F5FC0
:100D30001F4F0F731127E02E8C8DE8120CC00FB6D9
:100D400007FCFACFE889F989808185FFF5CFCE01CC
:100D50000E946106F1CF8B8DFE01E80FF11DE35A71
:100D6000FF4FF0820B8FEA89FB898081806207C088
:100D7000EE89FF896083E889F989808180648083B6
:100D800081E090E0DF91CF911F910F91FF90EF9064
:100D90000895CF93DF93EC01888D8823C9F0EA8909
:100DA000FB89808185FD05C0A889B9898C9186FD64
:100DB0000FC00FB607FCF5CF808185FFF2CFA88961
:100DC000B9898C9185FFEDCFCE010E946106E7CFF6
:100DD000DF91CF91089580E090E0892B29F00E9467
:100DE000570681110C94000008950E94360F0C9450
:100DF0003B0FDC01ED91FC910190F081E02D099415
:100E00006115710579F0FB0101900020E9F7319738
:100E1000AF01461B570BDC01ED91FC910280F38181
:100E2000E02D099480E090E008954F925F926F92D8
:100E30007F92EF92FF920F931F93CF93DF93CDB7E3
:100E4000DEB7A1970FB6F894DEBF0FBECDBF7C0111
:100E5000FA01CB0119A2223008F42AE08E010F5DBD
:100E60001F4F422E512C612C712CBF01A301920106
:100E70000E94CD0DF901CA01015011096A3014F424
:100E8000605D01C0695CD8016C93232B242B252B5A
:100E900061F7B801C7010E940007A1960FB6F89448
:100EA000DEBF0FBECDBFDF91CF911F910F91FF909D
:100EB000EF907F906F905F904F9008951F920F92E8
:100EC0000FB60F9211242F933F934F935F936F931D
:100ED0007F938F939F93AF93BF93EF93FF9384E69A
:100EE00092E00E946106FF91EF91BF91AF919F91B7
:100EF0008F917F916F915F914F913F912F910F90C3
:100F00000FBE0F901F9018951F920F920FB60F9261
:100F100011242F938F939F93EF93FF93E09174028B
:100F2000F09175028081E0917A02F0917B0282FD5E
:100F300012C0908180917D028F5F8F7320917E021D
:100F4000821751F0E0917D02F0E0EC59FD4F958F52
:100F500080937D0201C08081FF91EF919F918F91DD
:100F60002F910F900FBE0F901F9018950C94430F68
:100F70003FB7F89480917E0390917F03A091800306
:100F8000B091810326B5A89B05C02F3F19F00196AB
:100F9000A11DB11D3FBFBA2FA92F982F8827820FFF
:100FA000911DA11DB11DBC01CD0142E0660F771F4F
:100FB000881F991F4A95D1F70895BC0181E093E0FD
:100FC0000C940007CF93DF93CDB7DEB728970FB609
:100FD000F894DEBF0FBECDBF1D8290E49E8324E156
:100FE0002F8324E5288719829A8390E19B8390E5DB
:100FF0009C8320910803821710F08FEF820F3091AD
:10100000090390E0FE01E80FF91F303121F424308C
:1010100011F4618101C06581606881E093E02896E8
:101020000FB6F894DEBF0FBECDBFDF91CF910C9409
:101030007D02CF92DF92EF92FF92CF93DF936C010C
:10104000990FEE08FF08F7FE1BC06DE281E093E008
:101050000E94F906EC0144275527BA014C195D0995
:101060006E097F092AE081E093E00E9415078C0F4A
:101070009D1FDF91CF91FF90EF90DF90CF9008956B
:101080002AE0B701A60181E093E0DF91CF91FF90C4
:10109000EF90DF90CF900C94150762E081E093E031
:1010A0000E947D028BE39FE10197F1F70895209163
:1010B000630290916202213208F04AC080913F029F
:1010C0008111FCCF32E030933F0231E030933E0299
:1010D0003FEF30933D0210923C0220933B02A2E48A
:1010E000B2E04BE152E0FA013E2F341B321718F404
:1010F0003D913193F9CF10921A0220911A02990F63
:10110000922B90931A0290911902913061F41092EF
:10111000190290911A029093BB009091BC0093FD2C
:10112000F8CF95EC01C095EE9093BC0090913F02F2
:101130009230E1F390913D029F3F79F080913D0222
:10114000803241F080913D02803331F084E005C06F
:1011500081E003C082E001C083E01092410210925E
:10116000630210924002089590E0FC01EC55FF4F9D
:101170002491FC01E057FF4F8491882399F090E07F
:10118000880F991FFC01EA57FF4FA591B491FC010C
:10119000E458FF4F859194918FB7F894EC91E22B2E
:1011A000EC938FBF089590E0FC01E859FF4F349114
:1011B000FC01EC55FF4F2491FC01E057FF4FE491F7
:1011C000EE2309F43BC0332339F1333091F038F486
:1011D0003130A9F0323001F584B58F7D12C037303F
:1011E00091F03830A1F03430B9F4809180008F7DD7
:1011F00003C0809180008F77809380000DC084B5FC
:101200008F7784BD09C08091B0008F7703C0809133
:10121000B0008F7D8093B000F0E0EE0FFF1FE45828
:10122000FF4FA591B4918FB7F894EC91611103C071
:1012300020952E2301C02E2B2C938FBF08950F9342
:101240001F93CF93DF93C7E0D0E0082F10E0B801E1
:101250000C2E02C0759567950A94E2F761707727A6
:1012600088E00E94D30861E086E00E94D30860E035
:1012700086E00E94D308219750F7DF91CF911F910C
:101280000F9108958F929F92AF92BF92CF92DF926B
:10129000EF92FF926B017C010E94B8074B015C0149
:1012A000C114D104E104F104F1F00E94B807DC019B
:1012B000CB0188199909AA09BB09883E9340A10569
:1012C000B10570F321E0C21AD108E108F10888EEF7
:1012D000880E83E0981EA11CB11CC114D104E10446
:1012E000F10419F7DDCFFF90EF90DF90CF90BF9022
:1012F000AF909F908F9008951F920F920FB60F920C
:1013000011242F933F938F939F93AF93BF9380911B
:10131000150290911602A0911702B0911802309117
:101320007D0323E0230F2D3720F40196A11DB11D6D
:1013300005C026E8230F0296A11DB11D20937D0351
:101340008093150290931602A0931702B09318028F
:1013500080917E0390917F03A0918003B0918103DF
:101360000196A11DB11D80937E0390937F03A093EE
:101370008003B0938103BF91AF919F918F913F9173
:101380002F910F900FBE0F901F901895CF93DF9362
:10139000CDB7DEB768970FB6F894DEBF0FBECDBFEE
:1013A000789484B5826084BD84B5816084BD85B540
:1013B000826085BD85B5816085BD80916E0081604C
:1013C00080936E00109281008091810082608093F2
:1013D00081008091810081608093810080918000F4
:1013E0008160809380008091B10084608093B1001F
:1013F0008091B00081608093B00080917A00846019
:1014000080937A0080917A00826080937A00809144
:101410007A00816080937A0080917A00806880935E
:101420007A001092C100E0917402F091750282E09E
:101430008083E0917002F09171021082E09172025B
:10144000F09173028FEC808310927C02E09178021D
:10145000F091790286E08083E0917602F091770244
:10146000808180618083E0917602F09177028081B3
:1014700088608083E0917602F091770280818068B5
:101480008083E0917602F091770280818F7D808366
:1014900086E00E94B40887E00E94B40888E00E94B9
:1014A000B40820E044E060E181E093E00E94710430
:1014B0008BE393E090937B0380937A0386E293E03F
:1014C00090937903809378036BE373E00E94650344
:1014D000212C312C210123942FB7F89480911502EF
:1014E00090911602A0911702B09118022FBF80931D
:1014F0003C0390933D03A0933E03B0933F0381E4EC
:1015000080937C0080917A00806480937A0080913F
:101510007A0086FDFCCF009178008091790010E080
:10152000182B6801012E000CEE08FF0817FF0EC0F3
:101530006DE284E692E00E94F90644275527BA013D
:101540004C195D096E097F092AE003C02AE0B70142
:10155000A60184E692E00E9415076DE671E084E63C
:1015600092E00E940007023311053CF10639110593
:101570003CF10A3F11053CF10E3521E0120734F130
:10158000023C31E013072CF1063242E0140724F14B
:101590000A3852E015071CF1083F82E0180714F1E1
:1015A0000C3593E019070CF191E080E00A3C134000
:1015B0000CF090E0292F382F1AC02FEF3FEF17C003
:1015C00029E030E014C028E030E011C027E030E02E
:1015D0000EC026E030E00BC025E030E008C024E07B
:1015E00030E005C023E030E002C022E030E030937C
:1015F0004103209340032F3FBFEF3B0709F4A3C0F3
:10160000F901EE0FFF1FEE5BFC4F80819181019786
:1016100009F4E0C12530310594F480917C038111F7
:1016200071C00091780310917903F8018081918154
:101630002817390709F466C03183208337C0253065
:101640003105D1F480917C030091780310917903E6
:10165000D801811132C012968D919C9113970196F9
:101660008830910521F4F801138212821FC013966D
:101670009C938E9312971AC02630310509F0B3C19E
:1016800080917C03009178031091790381112AC025
:10169000D80112968D919C911397019797FFE7CFF0
:1016A000A7E0CA2ED12CF801D382C282C8010E94C1
:1016B0004302C8010E94210325C01F968D919C9171
:1016C0005097019650969C938E931F9718962D9144
:1016D0003C9119972817390794F450961C921E9242
:1016E0001F970DC0F801878590890197908B878798
:1016F00097FF05C0808591850197908B8787C801EA
:101700000E948D028091400390914103FC01EE0FF5
:10171000FF1FEE0FFF1FEC5AFC4F40913C0350910E
:101720003D0360913E0370913F0340835183628388
:101730007383880F991FFC01EE5BFC4F81E090E002
:101740009183808347C1E2E4F3E000E010E08191FF
:101750009191019709F038C10830110509F019C1BC
:1017600080917C038111E8C080913C0390913D03FE
:10177000A0913E03B0913F034091740350917503D3
:101780006091760370917703841B950BA60BB70BC2
:10179000893B2BE09207A105B10508F4B7C0809002
:1017A00078039090790381E093E00E9485020E9483
:1017B0004D0880E791E00E94DD0764EF71E080E072
:1017C00090E00E944209E12CF12C60E0C7010E94E8
:1017D000B6073FEFE31AF30AE11444E0F406A9F771
:1017E00086E1E6E0F1E0DE01119601900D928A9526
:1017F000E1F76BE082E090E00E94B6079E012F5F68
:101800003F4F388F2F8B68ECE62EF12CAF89B88DC7
:10181000CD90DD90B88FAF8B37015601F601019066
:101820000020E9F73197CF018C199D0995012C19FA
:101830003D092817390750F4F50161915F01C30193
:101840000E94B607FFEF6F1A7F0AE8CF60E08E0DA7
:101850009F1D0E94B6072AE0E20EF11C36E3E31654
:1018600031E0F30699F682E090E00E943B0FA82E4B
:10187000B12CC12CD12C55E0752ECA14DB04ECF52B
:1018800019821A82F60133E0F595E7953A95E1F76A
:1018900041E050E04C0F5D1FE40FF51FC60187705B
:1018A0009927A201910104C0220F331F441F551F25
:1018B0008A95D2F7DA01C9012081822B8083C60183
:1018C00065E070E00E94B90D769E7001779EF00C85
:1018D0001124E80EF91E32E3E30EF11CEE0CFF1C9E
:1018E0006981C7010E94B6076A81C70101960E94FB
:1018F000B6074FEFC41AD40AC0CFD40151966D91E8
:101900007C915297C4010E94650343C0893E934075
:10191000A105B105F0F181E080937C03E0917803AB
:10192000F0917903108A178684819581968785873F
:10193000CF010E948D022DC010927C03C0907803CD
:10194000D0907903D6011D96AD90BC901E9712964B
:101950008D919C91139725E0289F7001299FF00C91
:1019600011248D919C91E80EF91EB2E3EB0EF11C4F
:10197000EE0CFF1CF5016081C7010E94B607D5017E
:1019800011966C91C70101960E94B607C6010E948C
:101990002103F801EE0FFF1FEE0FFF1FEC5AFC4F63
:1019A00080913C0390913D03A0913E03B0913F0391
:1019B00080839183A283B383000F111FF801EE5B34
:1019C000FC4F1182108206C00F5F1F4F09301105B6
:1019D00009F0BDCE65E070E080E090E00E94420931
:1019E0000E94EB0679CD2730310509F08BCE80912E
:1019F0007C03882309F486CE009178031091790343
:101A0000D8011F96FC911F975096EC918F2F9E2F17
:101A100068E070E00E94B90D482F2F2F3E2F37FF4E
:101A200002C0295F3F4FF3E035952795FA95E1F71E
:101A3000D8011D96ED91FC911E97E20FF31F908146
:101A4000292F30E002C0359527958A95E2F772017B
:101A5000610104C0CC0CDD1CEE1CFF1C4A95D2F7C2
:101A6000B701A60120FD03C0492B408303C0409568
:101A700094239083C8010E941E0241CEE4E6F2E066
:101A80001382128288EE93E0A0E0B0E08483958315
:101A9000A683B78320E231E03183208325EC30E058
:101AA0003587248724EC30E03787268720EC30E028
:101AB000318B208B21EC30E0338B228B22EC30E019
:101AC000358B248B26EC30E0378B268B118E128ED3
:101AD000138E148EE1E0F3E01382128220E331E0F2
:101AE00031832083108A2FEF27871686118A20E200
:101AF0002387148615861286118630E4328B238B59
:101B000020E1248B21E0258B22E0268B24E0278B0B
:101B100028E0208FEAE1F3E0138212828483958328
:101B2000A683B78380E491E091838083ECE3F3E0C4
:101B300010821182128213828FEF9FEF958384832C
:101B400082E1E2E4F3E0DF011D928A95E9F784E2A5
:101B5000E4E5F3E0DF011D928A95E9F710927C033A
:101B6000E6E2F3E01182108213821282108A178655
:101B7000089597FB072E16F4009407D077FD09D03F
:101B80000E94EF0D07FC05D03EF4909581959F4F84
:101B90000895709561957F4F0895A1E21A2EAA1BB2
:101BA000BB1BFD010DC0AA1FBB1FEE1FFF1FA2170D
:101BB000B307E407F50720F0A21BB30BE40BF50B0A
:101BC000661F771F881F991F1A9469F76095709593
:101BD000809590959B01AC01BD01CF010895AA1B92
:101BE000BB1B51E107C0AA1FBB1FA617B70710F008
:101BF000A61BB70B881F991F5A95A9F7809590953A
:101C0000BC01CD010895EE0FFF1F0590F491E02D6A
:101C10000994CF93DF938230910510F482E090E035
:101C2000E0918403F091850320E030E0C0E0D0E053
:101C3000309711F14081518148175907C0F048177A
:101C4000590761F482819381209719F09B838A83DD
:101C50002BC0909385038093840326C02115310502
:101C600019F04217530718F49A01BE01DF01EF0182
:101C70000280F381E02DDCCF2115310509F1281B0D
:101C8000390B2430310590F412968D919C91139765
:101C90006115710521F0FB019383828304C0909349
:101CA000850380938403FD01329644C0FD01E20F59
:101CB000F31F81939193225031092D933C933AC0A5
:101CC0002091820330918303232B41F42091020160
:101CD000309103013093830320938203209100010C
:101CE000309101012115310541F42DB73EB74091E6
:101CF000040150910501241B350BE0918203F09102
:101D00008303E217F307A0F42E1B3F0B28173907B4
:101D100078F0AC014E5F5F4F2417350748F04E0F47
:101D20005F1F50938303409382038193919302C07A
:101D3000E0E0F0E0CF01DF91CF9108950F931F9382
:101D4000CF93DF93009709F48CC0FC013297138284
:101D5000128200918403109185030115110581F40D
:101D600020813181820F931F209182033091830360
:101D70002817390779F5F0938303E093820371C044
:101D8000D80140E050E0AE17BF0750F412962D91F5
:101D90003C911397AD012115310509F1D901F3CF1C
:101DA0009D01DA013383228360817181860F971F41
:101DB0008217930769F4EC0128813981260F371FB8
:101DC0002E5F3F4F318320838A819B81938382835F
:101DD000452B29F4F0938503E093840342C01396C6
:101DE000FC93EE931297ED01499159919E01240FB6
:101DF000351FE217F30771F480819181840F951FDD
:101E0000029611969C938E938281938113969C9354
:101E10008E931297E0E0F0E0D80112968D919C919C
:101E20001397009719F0F8018C01F6CF8D919C91D2
:101E300098012E5F3F4F820F931F209182033091B4
:101E400083032817390769F4309729F41092850322
:101E50001092840302C013821282109383030093B2
:101E60008203DF91CF911F910F91089581E090E05F
:101E7000F8940C94510FF999FECF92BD81BDF89A58
:101E8000992780B50895262FF999FECF1FBA92BDE4
:101E900081BD20BD0FB6F894FA9AF99A0FBE01964B
:061EA0000895F894FFCF45
:101EA60000008603800076017E0186018A01930187
:101EB6009C01A201AA01B101B801C1010000000004
:101EC6008206FE054B0629063D06C90600000000EF
:101ED6009B00FE05710487000402E3010000000078
:101EE60030010001C600B700A900A8002D004F4E22
:101EF600004F46460042414E4B20003A0050524F9A
:101F06004752414D204D4F4445002E20000D0A00FA
:101F16005245534554005475626553637200426FCF
:101F26006F737465720052415400546F6E65426E51
:101F3600647200436F6D70726573730044656C6103
:101F460079005472656D6F6C6F0043686F727573BC
:101F56000052657665726200456E76656C6F7065D7
:0C1F6600004E6F697365476174650000F0
:00000001FF
