:100000000C945D000C9485000C9485000C94850084
:100010000C9485000C9485000C9485000C9485004C
:100020000C9485000C9485000C9485000C9485003C
:100030000C9485000C9485000C9485000C9485002C
:100040000C94CD080C9485000C9454020C94170960
:100050000C9485000C9485000C9485000C9485000C
:100060000C9455050C948500000000080002010066
:100070000003040700000000000000000000000072
:10008000250028002B0000000000240027002A0083
:10009000040404040404040402020202020203032E
:1000A0000303030301020408102040800102040836
:1000B00010200102040810203D0911241FBECFEFBB
:1000C000D8E0DEBFCDBF11E0A0E0B1E0E2E5FCE1A9
:1000D00002C005900D92A835B107D9F723E0A8E535
:1000E000B1E001C01D92A231B207E1F710E0CDE509
:1000F000D0E004C02197FE010E94D90CCC35D10775
:10010000C9F70E94B8090C94270E0C940000FC015A
:10011000918D828D981761F0828DDF01A80FB11D3E
:100120005D968C91928D9F5F9F73928F90E0089562
:100130008FEF9FEF0895FC01918D828D981731F01C
:10014000828DE80FF11D858D90E008958FEF9FEF70
:100150000895FC01918D228D892F90E0805C9F4F46
:10016000821B91098F739927089580E090E0892B75
:1001700029F00E94F20681110C940000089521E0FC
:1001800001C0220F6A95EAF7DC011C962C931C979C
:100190001A965C934E931997ED91FC910084F1852A
:1001A000E02D60E00994DC01ED91FC910284F3857F
:1001B000E02D41E0099581E090E0089508950895CB
:1001C000089581E090E03091A00120919F013217C5
:1001D00010F480E090E091958195910908958091C7
:1001E000A00190919F01891730F48F5F8093A00147
:1001F00080E090E008958FEF9FEF089580919F0138
:1002000090E02091A001821B9109089585ED8093D3
:10021000BC008091BC0084FDFCCF1092C701089502
:1002200040917A01262F30E0240F311D2132310513
:10023000DCF42091C7012430C9F4FC0180E090E097
:10024000861758F430917A012191DC01A85ABE4FEB
:10025000A30FB11D2C930196F3CF80917A01680F03
:1002600060937A0180E0089581E0089582E0089526
:10027000CF92DF92EF92FF920F931F93CF93DF9372
:100280007C01262F972F8A018091C801882391F045
:10029000C62FD72F6E01C40ED51ECC15DD0571F00B
:1002A0006991D701ED91FC910190F081E02DC7019A
:1002B0000995F3CF642F822F0E941001C801DF91AE
:1002C000CF911F910F91FF90EF90DF90CF90089505
:1002D000CF93DF931F92CDB7DEB769832091C8011A
:1002E0002223D1F02091EB01203240F021E030E0D8
:1002F000FC013383228380E090E015C08091C90126
:10030000E82FF0E0E653FE4F998190838F5F809352
:10031000C9018093EB0105C061E0CE0101960E9406
:10032000100181E090E00F90DF91CF9108950F933D
:100330001F93CF93DF938B01C0E0D0E0FE0183E0F9
:10034000F595E7958A95E1F7E00FF11F808190E040
:100350009E012770332702C0959587952A95E2F76D
:1003600080FF05C08C2F8F5B0E94120704C086E3BC
:1003700091E00E9410072196C031D105F9F6DF9176
:10038000CF911F910F910895FC0123812223B9F091
:100390009181909569236083828191E09093C80157
:1003A0008093EA011092C9011092EB0182EA92E077
:1003B0000E9468010E94C707282F30E002C020E099
:1003C00030E081E090E0232B11F080E090E0089590
:1003D000EF92FF920F931F93CF938C01FC017596C0
:1003E00084E0C0E060FF02C09081C92B6695815017
:1003F00031968111F7CF413011F4F8014489F801A9
:100400008585C82BC42B7801FEE0EF0EF11CF801A6
:1004100062896C2BC7010E94C401F8016289609552
:100420006C23C701CF911F910F91FF90EF900C9417
:10043000C4010F931F93CF93DF93062F0F704230A9
:1004400019F440E0602F10C0142F262FEC0130E08B
:10045000B90184E0759567958A95E1F7CE010E9410
:10046000E801412F602FCE01DF91CF911F910F91B5
:100470000C94E801FC0184858823A9F0218532854C
:100480002115310519F4611106C007C0213031056D
:1004900021F4611102C0858701C015866585CF01F1
:1004A0000E960C94C40108951F920F920FB60F92EE
:1004B00011242F938F939F93EF93FF93E091FC016F
:1004C000F091FD018081E0910202F091030282FD32
:1004D00012C09081809105028F5F8F732091060278
:1004E000821751F0E0910502F0E0E451FE4F958F44
:1004F0008093050201C08081FF91EF919F918F91C0
:100500002F910F900FBE0F901F901895FC01848DB6
:10051000DF01A80FB11DA35ABF4F2C91848D90E02D
:1005200001968F739927848FA689B7892C93A08908
:10053000B1898C9180648C93938D848D981306C0BF
:100540000288F389E02D80818F7D80830895EF926A
:10055000FF920F931F93CF93DF93EC0181E0888F7D
:100560009B8D8C8D981305C0E889F989808185FD64
:1005700024C0F62E0B8D10E00F5F1F4F0F73112755
:10058000E02E8C8DE8120CC00FB607FCFACFE8897C
:10059000F989808185FFF5CFCE010E948602F1CFD7
:1005A0008B8DFE01E80FF11DE35AFF4FF0820B8F98
:1005B000EA89FB898081806207C0EE89FF896083B8
:1005C000E889F98980818064808381E090E0DF910F
:1005D000CF911F910F91FF90EF900895CF93DF93EC
:1005E000EC01888D8823C9F0EA89FB89808185FD2B
:1005F00005C0A889B9898C9186FD0FC00FB607FC8C
:10060000F5CF808185FFF2CFA889B9898C9185FFCC
:10061000EDCFCE010E948602E7CFDF91CF91089502
:100620000C94110ECF93DF93EC0181E090E00880F1
:1006300002C0880F991F0A94E2F78A87EC81FD8136
:1006400080818B8781818C8760E087E00E9424080D
:100650008C850E9470088B850E9470088A850E9494
:10066000700861E087E0DF91CF910C942408AF928D
:10067000BF92CF92DF92EF92FF920F931F93CF938F
:10068000DF938C01FC01848195810E94740DF80137
:10069000C080D180A280B38082E090E00E94DF0C15
:1006A0007C01AC9CE001AD9CD00DBC9CD00D112414
:1006B000E296CC0FDD1FCE010E941003F70180836C
:1006C000CE0101960E941003F7018183F801F582A3
:1006D000E482DF91CF911F910F91FF90EF90DF9017
:1006E000CF90BF90AF900895DC01ED91FC91028412
:1006F000F385E02D40E0099461E00E9474038BE3F0
:100700009FE10197F1F708956F927F928F929F92E8
:10071000AF92BF92CF92DF92EF92FF920F931F930F
:10072000CF93DF936C01DC011D960D911C911E97F8
:100730001F96ED90FC9050979701F7FE02C0295F3D
:100740003F4F83E0359527958A95E1F7F801E20F51
:10075000F31FC081D0E0C70168E070E00E948F0CF9
:1007600002C0D595C7958A95E2F7C170DD27C7010C
:10077000880F991FD6011696ED91FC911797E80FF7
:10078000F91F8080918012966D907C9013975196FE
:10079000AD90BC90529789E892E00E947C0362E0A1
:1007A00089E892E00E9474038BE39FE10197F1F7DF
:1007B0008FE391E00E9410076301BFEFCB1ADB0AC1
:1007C000C6010E94540785E491E00E941007C6010B
:1007D0000E94540781E00E941D0787E491E00E9477
:1007E000100782E00E941D0781E48E0D0E9412070F
:1007F00084E591E00E941007C4010E94100780E286
:100800000E941207CD2B19F48BE391E002C088E31C
:1008100091E00E94100783E00E941D07B801C50106
:10082000DF91CF911F910F91FF90EF90DF90CF90CC
:10083000BF90AF909F908F907F906F900C94970196
:10084000CF92DF92EF92FF920F931F93CF93DF939C
:10085000EC016A8180E090E00E94190E688181E0DD
:1008600090E00E94190ECE010E9412030C811D819E
:10087000E880F980CA80DB800988DA89C02D89E8A0
:1008800092E00E947C0362E089E892E00E94740397
:10089000EBE3FFE13197F1F78FE391E00E9410075E
:1008A000C60101960E94540785E491E00E9410075A
:1008B000C70101960E94540783E00E941D07B801FA
:1008C000CE01DF91CF911F910F91FF90EF90DF90BC
:1008D000CF900C9497010F931F93CF93DF93EC016C
:1008E000423018F08C8188608C834F836887222384
:1008F00029F0413019F48C8184608C8364E670E0C7
:1009000080E090E00E9493086C8164FD31C0E88132
:10091000F9810284F385E02D42E063E0CE01099580
:100920008BE496E40197F1F7E881F9810284F3857D
:10093000E02D42E063E0CE01099503E512E0C80135
:100940000197F1F7E881F9810284F385E02D42E017
:1009500063E0CE010995C8010197F1F7E881F981BB
:100960000284F385E02D42E062E0CE01099517C0D4
:100970006062CE010E9474038BE496E40197F1F764
:100980006C816062CE010E94740303E512E0C8012D
:100990000197F1F76C816062CE010E947403C80177
:1009A0000197F1F76C816062CE010E9474038BEEB7
:1009B00090E00197F1F784E08D836CE0CE010E9416
:1009C0007403CE010E947C0382E08E8366E0CE0138
:1009D0000E947403E881F9810084F185E02D6FEFB6
:1009E000CE01DF91CF911F910F910994EF92FF9269
:1009F0000F931F93CF93DF93EC01062FF42EE22E7B
:100A00008B85888B1092A00110929F011092C901D2
:100A10001092EB011092C70111E01093C6011092E1
:100A2000A10161E082E10E94240861E083E10E946B
:100A300024088091B9008E7F8093B9008091B9001D
:100A40008D7F8093B90088E48093B80085E480931B
:100A5000BC0088891093C8018093EA011092C901F3
:100A60001092EB010E94C70791E0811190E0998BF1
:100A7000992329F082EA92E00E94EF008E8789890B
:100A8000882339F01F861C8260E0CE010E960E94FA
:100A9000C4012E2D4F2D602FCE01DF91CF911F91DC
:100AA0000F91FF90EF900C946B041F920F920FB672
:100AB0000F9211242F933F934F935F936F937F93E4
:100AC0008F939F93AF93BF93EF93FF938091B90060
:100AD000887F803609F49CC068F5883209F45BC0D1
:100AE00090F4803109F454C038F4882309F4F6C036
:100AF000883009F44DC0F6C0883109F44CC080320A
:100B000009F45DC0EFC0803409F468C048F4803354
:100B100009F455C0883309F0E5C08093C501D8C0F9
:100B2000803509F44FC0883509F45DC0883409F078
:100B3000D9C0D6C0883909F4C7C0A8F4883709F4E9
:100B400067C038F4883609F463C0803709F460C0A0
:100B5000C9C0883809F4B8C0803909F45FC080384A
:100B600009F0C0C05BC0803B09F486C038F4803A0D
:100B700009F466C0883A09F47FC0B4C0803C09F427
:100B8000A7C0883C09F4A4C0883B09F48AC0AAC065
:100B90008091A20110C09091C4018091C301981767
:100BA00070F5E091C40181E08E0F8093C401F0E004
:100BB000ED55FE4F80818093BB0085EC86C080930D
:100BC000C5018EC0E091C40181E08E0F8093C40105
:100BD0008091BB00F0E0ED55FE4F80839091C40101
:100BE0008091C3016EC0E091C40181E08E0F8093BB
:100BF000C4018091BB00F0E0ED55FE4F80838091F1
:100C0000C60181116DC081E08093A10184EA61C0B9
:100C100083E08093C70110929E01CFCF80919E0107
:100C2000803208F051C0E0919E0181E08E0F8093E8
:100C30009E018091BB00F0E0E258FE4F8083BDCF63
:100C400085EC8093BC001092C70180919E01803298
:100C500030F4E0919E01F0E0E258FE4F1082609186
:100C60009E0170E0E0917C01F0917D018EE791E0C2
:100C7000099510929E0136C084E08093C7011092BE
:100C80007B0110927A01E0917801F0917901099548
:100C900080917A01811105C081E080937A011092E0
:100CA0005801E0917B0181E08E0F80937B01F0E0A1
:100CB000E85AFE4F80818093BB0090917B01809128
:100CC0007A01981708F479CF85E88093BC000AC0B0
:100CD00085EC8093BC001092C70104C01092C5013E
:100CE0000E940601FF91EF91BF91AF919F918F916B
:100CF0007F916F915F914F913F912F910F900FBE18
:100D00000F901F90189590E0FC01EC55FF4F249137
:100D1000FC01E057FF4F8491882399F090E0880F01
:100D2000991FFC01EA57FF4FA591B491FC01E458CB
:100D3000FF4F859194918FB7F894EC91E22BEC934F
:100D40008FBF08953FB7F8948091B3029091B40299
:100D5000A091B502B091B60226B5A89B05C02F3F61
:100D600019F00196A11DB11D3FBFBA2FA92F982FD1
:100D70008827820F911DA11DB11DBC01CD0142E04C
:100D8000660F771F881F991F4A95D1F70895CF9254
:100D9000DF92EF92FF920F931F93CF93DF936C013B
:100DA0007A018B01C0E0D0E0CE15DF0589F0D801D3
:100DB0006D918D01D601ED91FC910190F081E02DB6
:100DC000C6010995892B11F47E0102C02196ECCF52
:100DD000C701DF91CF911F910F91FF90EF90DF90AE
:100DE000CF9008958CEE91E00E94A90021E0892B1C
:100DF00009F420E0822F0895009769F0FC0101902A
:100E00000020E9F73197AF01481B590BBC0189E875
:100E100092E00C94C70680E090E008950E940C0ECA
:100E20000C94FC06E0918902F0918A020190F08115
:100E3000E02D682F89E892E00994CF93DF93CDB736
:100E4000DEB728970FB6F894DEBF0FBECDBF1D8268
:100E500090E49E8324E12F8324E5288719829A83D6
:100E600090E19B8390E59C8320919002821710F083
:100E70008FEF820F3091910290E0FE01E80FF91F91
:100E8000303121F4243011F4618101C06581606842
:100E900089E892E028960FB6F894DEBF0FBECDBF6A
:100EA000DF91CF910C9474038F929F92AF92BF9277
:100EB000CF92DF92EF92FF920F931F93CF93DF9326
:100EC000CDB7DEB7A1970FB6F894DEBF0FBECDBF8A
:100ED0006C01990FEE08FF08F7FE29C08DE20E9411
:100EE00012078C0122273327A9012C193D094E092D
:100EF0005F0919A2CE0181967C019AE0892E912C7E
:100F0000A12CB12CCA01B901A50194010E94A30C26
:100F1000605DF70162937F0121153105410551059F
:100F200089F7CF010E94FC06800F911F1DC0A70109
:100F3000960119A28E010F5D1F4F8AE0C82ED12C99
:100F4000E12CF12CCA01B901A70196010E94A30C62
:100F5000605DF80162938F0121153105410551054E
:100F600089F7CF010E94FC06A1960FB6F894DEBF68
:100F70000FBECDBFDF91CF911F910F91FF90EF90EA
:100F8000DF90CF90BF90AF909F908F900895209169
:100F9000EB019091EA01213208F04AC08091C7012B
:100FA0008111FCCF32E03093C70131E03093C601AC
:100FB0003FEF3093C5011092C4012093C301AAEC06
:100FC000B1E043EA51E0FA013E2F341B321718F426
:100FD0003D913193F9CF1092A2012091A201990F76
:100FE000922B9093A2019091A101913061F4109203
:100FF000A1019091A2019093BB009091BC0093FD40
:10100000F8CF95EC01C095EE9093BC009091C7018C
:101010009230E1F39091C5019F3F79F08091C50135
:10102000803241F08091C501803331F084E005C009
:1010300081E003C082E001C083E01092C9011092F8
:10104000EB011092C801089590E0FC01E859FF4FB0
:101050003491FC01EC55FF4F2491FC01E057FF4F08
:10106000E491EE2309F43BC0332339F1333091F09E
:1010700038F43130A9F0323001F584B58F7D12C0DB
:10108000373091F03830A1F03430B9F480918000DD
:101090008F7D03C0809180008F77809380000DC08A
:1010A00084B58F7784BD09C08091B0008F7703C06D
:1010B0008091B0008F7D8093B000F0E0EE0FFF1FB5
:1010C000E458FF4FA591B4918FB7F894EC9161115A
:1010D00003C020952E2301C02E2B2C938FBF089583
:1010E0000F931F93CF93DF93C7E0D0E0082F10E05A
:1010F000B8010C2E02C0759567950A94E2F76170ED
:10110000772788E00E94240861E086E00E94240896
:1011100060E086E00E942408219750F7DF91CF918C
:101120001F910F9108958F929F92AF92BF92CF928D
:10113000DF92EF92FF926B017C010E94A2064B01AD
:101140005C01C114D104E104F104F1F00E94A20693
:10115000DC01CB0188199909AA09BB09883E934093
:10116000A105B10570F321E0C21AD108E108F10828
:1011700088EE880E83E0981EA11CB11CC114D10416
:10118000E104F10419F7DDCFFF90EF90DF90CF90ED
:10119000BF90AF909F908F9008951F920F920FB6BF
:1011A0000F9211242F933F938F939F93AF93BF93ED
:1011B0008091AF029091B002A091B102B091B202C1
:1011C0003091AE0223E0230F2D3720F40196A11DAC
:1011D000B11D05C026E8230F0296A11DB11D209365
:1011E000AE028093AF029093B002A093B102B0938D
:1011F000B2028091B3029091B402A091B502B09175
:10120000B6020196A11DB11D8093B3029093B40262
:10121000A093B502B093B602BF91AF919F918F9109
:101220003F912F910F900FBE0F901F9018951F9216
:101230000F920FB60F9211242F933F934F935F930A
:101240006F937F938F939F93AF93BF93EF93FF938E
:101250008CEE91E00E948602FF91EF91BF91AF91D9
:101260009F918F917F916F915F914F913F912F91BE
:101270000F900FBE0F901F901895ECEEF1E01382C7
:10128000128288EE93E0A0E0B0E084839583A68389
:10129000B7832AE031E03183208325EC30E03587C5
:1012A000248724EC30E03787268720EC30E0318B30
:1012B000208B21EC30E0338B228B22EC30E0358B1D
:1012C000248B26EC30E0378B268B118E128E138EFA
:1012D000148EE9E8F2E0138212822AE131E03183D0
:1012E0002083108A2FEF27871686118A20E2238712
:1012F000148615861286118630E4328B238B20E10A
:10130000248B21E0258B22E0268B24E0278B28E00C
:10131000208FE2EAF2E01382128284839583A6830F
:10132000B7838AE291E091838083EDECF2E0108252
:101330001182128213828FEF9FEF9583848382E163
:10134000E3EDF2E0DF011D928A95E9F784E2E5EE34
:10135000F2E0DF011D928A95E9F710920D03E7EBA9
:10136000F2E01182108213821282108A1786089589
:10137000789484B5826084BD84B5816084BD85B570
:10138000826085BD85B5816085BD80916E0081607C
:1013900080936E0010928100809181008260809322
:1013A0008100809181008160809381008091800024
:1013B0008160809380008091B10084608093B1004F
:1013C0008091B00081608093B00080917A00846049
:1013D00080937A0080917A00826080937A00809175
:1013E0007A00816080937A0080917A00806880938F
:1013F0007A001092C100E091FC01F091FD0182E0C1
:101400008083E091F801F091F9011082E091FA01F6
:10141000F091FB018FEC808310920402E0910002B6
:10142000F091010286E08083E091FE01F091FF01DE
:10143000808180618083E091FE01F091FF018081D5
:1014400088608083E091FE01F091FF0180818068D7
:101450008083E091FE01F091FF0180818F7D808388
:1014600086E00E94830687E00E94830688E00E944F
:10147000830620E044E060E189E892E00E94F604FF
:101480008CEC92E090930C0380930B0327EB32E0FB
:1014900030930A03209309039093C9028093C802F2
:1014A00081E090E00E94DF0C9093CB028093CA020F
:1014B00080E090E00E94100390E09093BA02809345
:1014C000B90281E090E00E94100390E09093B8028E
:1014D0008093B70282E090E00E941003E82EF12C86
:1014E000F092C002E092BF0284E190E00E94DF0C23
:1014F0002C01C82FD52DA12CB12CC12CD12CCE1450
:10150000DF0424F58AE090E00E94DF0C9983888351
:1015100000E010E0350128EC620E711C8880998093
:10152000800E911EC301800F911F0E941003F401D1
:1015300080830F5F1F4F0A30110581F7FFEFCF1A2D
:10154000DF0A22960AE0A00EB11CD9CF4092BD025C
:101550005092BE0287EB92E00E94370387EB92E045
:101560000E94200478E0272E312CE7E08E2E912C6B
:10157000AA24A394B12C412C512C320143942FB7AF
:10158000F8948091AF029091B002A091B102B09115
:10159000B2022FBF8093CD029093CE02A093CF02D0
:1015A000B093D00211E410937C0080917A008064A3
:1015B00080937A0080917A0086FDFCCF809178003C
:1015C0002091790090E0922B8639910524F18A3F91
:1015D000910524F18E3521E092071CF1823C31E027
:1015E000930714F18632E2E09E070CF18A38F2E0AC
:1015F0009F0704F1883F02E09007FCF08C3513E070
:101600009107F4F051E040E08A3C93400CF050E048
:10161000252F342F17C02FEF3FEF14C028E030E004
:1016200011C027E030E00EC026E030E00BC025E01E
:1016300030E008C024E030E005C023E030E002C024
:1016400022E030E03093D2022093D1022F3F8FEF7F
:10165000380709F48AC0F901EE0FFF1FED52FD4F64
:1016600080819181019709F403C1253031058CF403
:1016700080910D0381115AC0C0910903D0910A03D2
:10168000888199812817390709F450C03983288344
:101690002AC025303105A1F480910D03C0910903C2
:1016A000D0910A03811126C08A819B8101968830DE
:1016B000910519F41B821A8216C09B838A8313C07A
:1016C0002630310509F0DDC080910D03C09109037A
:1016D000D0910A0381111BC08A819B81019797FFDA
:1016E000ECCF9B828A82CE010E943703CE010E94FA
:1016F00020041CC08F8598890196988B8F87288538
:101700003985281739077CF4188A1F860CC08F8505
:1017100098890197988B8F8797FF05C08885998551
:101720000197988B8F87CE010E9484038091D1020C
:101730009091D202FC01EE0FFF1FEE0FFF1FEB5145
:10174000FD4F4091CD025091CE026091CF02709139
:10175000D0024083518362837383880F991FFC01F9
:10176000ED52FD4FB182A08283C0E3EDF2E0C0E014
:10177000D0E081919191019709F075C0C830D105F1
:1017800009F057C080910D0381112DC02FB7F89437
:101790008091AF029091B002A091B102B091B202DB
:1017A0002FBF40910503509106036091070370918C
:1017B0000803841B950BA60BB70B893E9340A1052C
:1017C000B105B8F181E080930D03E0910903F09138
:1017D0000A03108A17868481958196878587CF01B1
:1017E0000E94840326C010920D03E0900903F0903C
:1017F0000A03F701C584D6842281338180819181D7
:10180000289F8001299F100D389F100D11240E5C18
:101810001F4F000F111FF6016081C8010E94190EB1
:10182000F6016181C80101960E94190EC7010E944C
:101830002004FE01EE0FFF1FEE0FFF1FEB51FD4FC7
:101840008091CD029091CE02A091CF02B091D002B2
:1018500080839183A283B383CC0FDD1FCD52DD4FF4
:101860001982188205C02196C930D10509F081CFAF
:1018700065E070E080E090E00E9493080E94B5006F
:101880007ECE2730310509F051CF80910D0388239A
:1018900009F44CCFC0910903D0910A03FF85E88970
:1018A0008F2F9E2FB1010E948F0C482F2F2F3E2F7C
:1018B00037FF02C0295F3F4F53E0359527955A9572
:1018C000E1F7ED85FE85E20FF31F9081292F30E0CF
:1018D00002C0359527958A95E2F720FD0EC0930149
:1018E000820104C0000F111F221F331F4A95D2F737
:1018F000B901A801492B40830EC09301820104C0A5
:10190000000F111F221F331F4A95D2F7B901A801FA
:10191000409594239083CE010E94120304CF97FB3D
:10192000072E16F4009407D077FD09D00E94C50C4D
:1019300007FC05D03EF4909581959F4F08957095D2
:1019400061957F4F0895A1E21A2EAA1BBB1BFD01D2
:101950000DC0AA1FBB1FEE1FFF1FA217B307E4078E
:10196000F50720F0A21BB30BE40BF50B661F771FE6
:10197000881F991F1A9469F76095709580959095C6
:101980009B01AC01BD01CF010895AA1BBB1B51E116
:1019900007C0AA1FBB1FA617B70710F0A61BB70BDF
:1019A000881F991F5A95A9F780959095BC01CD0184
:1019B0000895EE0FFF1F0590F491E02D0994CF9349
:1019C000DF938230910510F482E090E0E091100303
:1019D000F091110320E030E0C0E0D0E0309711F149
:1019E0004081518148175907C0F04817590761F4E1
:1019F00082819381209719F09B838A832BC09093D7
:101A000011038093100326C02115310519F04217E8
:101A1000530718F49A01BE01DF01EF010280F38140
:101A2000E02DDCCF2115310509F1281B390B2430BD
:101A3000310590F412968D919C9113976115710563
:101A400021F0FB019383828304C090931103809360
:101A50001003FD01329644C0FD01E20FF31F819394
:101A60009193225031092D933C933AC020910E035B
:101A700030910F03232B41F4209102013091030197
:101A800030930F0320930E03209100013091010148
:101A90002115310541F42DB73EB740910401509115
:101AA0000501241B350BE0910E03F0910F03E217A3
:101AB000F307A0F42E1B3F0B2817390778F0AC0171
:101AC0004E5F5F4F2417350748F04E0F5F1F50934E
:101AD0000F0340930E038193919302C0E0E0F0E086
:101AE000CF01DF91CF9108950F931F93CF93DF9391
:101AF000009709F48CC0FC01329713821282009186
:101B00001003109111030115110581F42081318119
:101B1000820F931F20910E0330910F03281739076E
:101B200079F5F0930F03E0930E0371C0D80140E004
:101B300050E0AE17BF0750F412962D913C911397C9
:101B4000AD012115310509F1D901F3CF9D01DA016C
:101B50003383228360817181860F971F82179307D9
:101B600069F4EC0128813981260F371F2E5F3F4F22
:101B7000318320838A819B8193838283452B29F43F
:101B8000F0931103E093100342C01396FC93EE937D
:101B90001297ED01499159919E01240F351FE217CB
:101BA000F30771F480819181840F951F029611963D
:101BB0009C938E938281938113969C938E9312971C
:101BC000E0E0F0E0D80112968D919C911397009778
:101BD00019F0F8018C01F6CF8D919C9198012E5F40
:101BE0003F4F820F931F20910E0330910F03281750
:101BF000390769F4309729F41092110310921003F9
:101C000002C01382128210930F0300930E03DF9120
:101C1000CF911F910F91089581E090E0F8940C947A
:101C2000270EF999FECF92BD81BDF89A992780B50C
:101C30000895262FF999FECF1FBA92BD81BD20BD10
:101C40000FB6F894FA9AF99A0FBE01960895F8948F
:021C5000FFCFC4
:101C520000001203800000000000A702C706A900CE
:101C620087009B00EE0200000000D300C706F604C6
:101C7200BF003A0219020000000068013801FE00AC
:101C8200EF00E100E0002D004F4E004F46460042BB
:101C9200414E4B20003A0050524F4752414D204D89
:081CA2004F4445002E20000014
:00000001FF
