:100000000C945D000C9485000C9485000C94850084
:100010000C9485000C9485000C9485000C9485004C
:100020000C9485000C9485000C9485000C9485003C
:100030000C9485000C9485000C9485000C9485002C
:100040000C9449090C9485000C9456020C94930965
:100050000C9485000C9485000C9485000C9485000C
:100060000C94C7050C9485000000000800020100F4
:100070000003040700000000000000000000000072
:10008000250028002B0000000000240027002A0083
:10009000040404040404040402020202020203032E
:1000A0000303030301020408102040800102040836
:1000B0001020010204081020B90911241FBECFEF3F
:1000C000D8E0DEBFCDBF11E0A0E0B1E0E2E3FEE1A9
:1000D00002C005900D92A83CB107D9F723E0A8EC27
:1000E000B1E001C01D92A238B207E1F710E0CDE502
:1000F000D0E004C02197FE010E94C90DCC35D10784
:10010000C9F70E94340A0C94170F0C940000FC01EC
:10011000918D828D981761F0828DDF01A80FB11D3E
:100120005D968C91928D9F5F9F73928F90E0089562
:100130008FEF9FEF0895FC01918D828D981731F01C
:10014000828DE80FF11D858D90E008958FEF9FEF70
:100150000895FC01918D228D892F90E0805C9F4F46
:10016000821B91098F739927089580E090E0892B75
:1001700029F00E94640781110C940000089521E089
:1001800001C0220F6A95EAF7DC011C962C931C979C
:100190001A965C934E931997ED91FC910084F1852A
:1001A000E02D60E00994DC01ED91FC910284F3857F
:1001B000E02D41E0099581E090E0089508950895CB
:1001C000089581E090E03091100220910F023217E3
:1001D00010F480E090E091958195910908958091C7
:1001E000100290910F02891730F48F5F80931002F4
:1001F00080E090E008958FEF9FEF089580910F02C7
:1002000090E020911002821B9109089585ED809362
:10021000BC008091BC0084FDFCCF10923702089591
:100220004091EA01262F30E0240F311D21323105A3
:10023000DCF4209137022430C9F4FC0180E090E026
:10024000861758F43091EA012191DC01A853BE4F82
:10025000A30FB11D2C930196F3CF8091EA01680F93
:100260006093EA0180E0089581E0089582E00895B6
:10027000CF92DF92EF92FF920F931F93CF93DF9372
:100280007C01262F972F8A0180913802882391F0D4
:10029000C62FD72F6E01C40ED51ECC15DD0571F00B
:1002A0006991D701ED91FC910190F081E02DC7019A
:1002B0000995F3CF642F822F0E941001C801DF91AE
:1002C000CF911F910F91FF90EF90DF90CF90089505
:1002D000CF93DF931F92CDB7DEB7698320913802A9
:1002E0002223D1F020915B02203240F021E030E067
:1002F000FC013383228380E090E015C080913902B5
:10030000E82FF0E0E65CFD4F998190838F5F80934A
:10031000390280935B0205C061E0CE0101960E9424
:10032000100181E090E00F90DF91CF9108950C943F
:10033000010F0F931F93CF93DF938B01C0E0D0E0A9
:10034000FE0183E0F595E7958A95E1F7E00FF11F4F
:10035000808190E09E012770332702C09595879594
:100360002A95E2F780FF05C08C2F8F5B0E948407DF
:1003700004C08CE491E00E9482072196C031D1052F
:10038000F9F6DF91CF911F910F910895FC01238120
:100390002223B9F09181909569236083828191E055
:1003A0009093380280935A021092390210925B02A5
:1003B00082E193E00E9468010E944308282F30E008
:1003C00002C020E030E081E090E0232B11F080E0DB
:1003D00090E00895EF92FF920F931F93CF938C01BB
:1003E000FC01759684E0C0E060FF02C09081C92BDB
:1003F0006695815031968111F7CF413011F4F801A3
:100400004489F8018585C82BC42B7801FEE0EF0EE6
:10041000F11CF80162896C2BC7010E94C601F8012A
:10042000628960956C23C701CF911F910F91FF9056
:10043000EF900C94C6010F931F93CF93DF93062F79
:100440000F70423019F440E0602F10C0142F262F97
:10045000EC0130E0B90184E0759567958A95E1F784
:10046000CE010E94EA01412F602FCE01DF91CF9192
:100470001F910F910C94EA01FC0184858823A9F057
:10048000218532852115310519F4611106C007C097
:100490002130310521F4611102C0858701C0158624
:1004A0006585CF010E960C94C60108951F920F9298
:1004B0000FB60F9211242F938F939F93EF93FF9377
:1004C000E0916C02F0916D028081E0917202F091F6
:1004D000730282FD12C09081809175028F5F8F73CD
:1004E00020917602821751F0E0917502F0E0E45A13
:1004F000FD4F958F8093750201C08081FF91EF9130
:100500009F918F912F910F900FBE0F901F90189574
:10051000FC01848DDF01A80FB11DA35ABF4F2C91A0
:10052000848D90E001968F739927848FA689B7896F
:100530002C93A089B1898C9180648C93938D848D48
:10054000981306C00288F389E02D80818F7D808317
:100550000895EF92FF920F931F93CF93DF93EC01D7
:1005600081E0888F9B8D8C8D981305C0E889F9896F
:10057000808185FD24C0F62E0B8D10E00F5F1F4F8C
:100580000F731127E02E8C8DE8120CC00FB607FCFC
:10059000FACFE889F989808185FFF5CFCE010E94E5
:1005A0008802F1CF8B8DFE01E80FF11DE35AFF4F5A
:1005B000F0820B8FEA89FB898081806207C0EE8917
:1005C000FF896083E889F98980818064808381E084
:1005D00090E0DF91CF911F910F91FF90EF900895E0
:1005E000CF93DF93EC01888D8823C9F0EA89FB89DA
:1005F000808185FD05C0A889B9898C9186FD0FC0D1
:100600000FB607FCF5CF808185FFF2CFA889B989A5
:100610008C9185FFEDCFCE010E948802E7CFDF915C
:10062000CF9108950C94090FCF93DF93EC0181E0F3
:1006300090E0088002C0880F991F0A94E2F78A8729
:10064000EC81FD8180818B8781818C8760E087E0F0
:100650000E94A0088C850E94EC088B850E94EC0803
:100660008A850E94EC0861E087E0DF91CF910C94CD
:10067000A008CF92DF92EF92FF920F931F93CF9338
:10068000DF938C01FC01848195810E94640EF80146
:10069000C081D181C280D38082E090E00E94CF0DE2
:1006A0007C0125E02C9DC0012D9D900D1124C80FCB
:1006B000D91FE296CC0FDD1FCE010E949701F701F2
:1006C0008083CE0101960E949701F7018183F80192
:1006D000F582E482DF91CF911F910F91FF90EF900F
:1006E000DF90CF900895DC01ED91FC910284F385B9
:1006F000E02D40E0099461E00E9473038BE39FE1E9
:100700000197F1F708956F927F928F929F92AF9227
:10071000BF92CF92DF92EF92FF920F931F93CF93EE
:10072000DF936C01DC011D960D911C911E971F96A5
:10073000ED90FC9050979701F7FE02C0295F3F4F64
:1007400083E0359527958A95E1F7F801E20FF31FCD
:10075000C081D0E0C70168E070E00E947F0D02C058
:10076000D595C7958A95E2F7C170DD27C701880F37
:10077000991FD6011696ED91FC911797E80FF91F76
:100780008080918012966D907C9013975196AD90D9
:10079000BC90529789EF92E00E947B030E94390837
:1007A00085E591E00E9482076301BFEFCB1ADB0A67
:1007B000C6010E94C6078BE591E00E948207C60130
:1007C0000E94C60781E00E948F078DE591E00E949C
:1007D000820782E00E948F0781E48E0D0E948407C9
:1007E0008AE691E00E948207C4010E94820780E2AB
:1007F0000E948407CD2B19F481E591E002C08EE4BC
:1008000091E00E94820783E00E948F07B801C50132
:10081000DF91CF911F910F91FF90EF90DF90CF90DC
:10082000BF90AF909F908F907F906F900C949901A4
:10083000CF92DF92EF92FF920F931F93CF93DF93AC
:10084000EC016A8180E090E00E941203688181E0FF
:1008500090E00E941203CE010E9414030C811D81BE
:10086000E880F980CA80DB800988DA89C02D89EFA9
:1008700092E00E947B030E94390885E591E00E9486
:100880008207C60101960E94C6078BE591E00E948F
:100890008207C70101960E94C60783E00E948F0766
:1008A000B801CE01DF91CF911F910F91FF90EF9092
:1008B000DF90CF900C9499012F923F924F925F92CC
:1008C0006F927F928F929F92AF92BF92CF92DF9260
:1008D000EF92FF920F931F93CF93DF93EC017A8BEC
:1008E000698B81E090E00E94CF0D9C8B8B8B80E028
:1008F00090E00E94970190E09B838A8381E090E0E2
:100900000E94970190E09983888382E090E00E94A2
:100910009701E82EF12CF986E88684E190E00E94A8
:10092000CF0D1C018C01A12CB12CC12CD12CCE14CB
:10093000DF044CF58AE090E00E94CF0DF80191832E
:100940008083412C512C3501F8EC6F0E711CF8019D
:1009500080809180840C951CC301840D951D0E949C
:100960009701F4018083FFEF4F1A5F0A8AE048166F
:10097000510469F7EFEFCE1ADE0A0E5F1F4FFAE05F
:10098000AF0EB11CD4CF2E823F82CE010E9439031C
:10099000CE01DF91CF911F910F91FF90EF90DF90EB
:1009A000CF90BF90AF909F908F907F906F905F900F
:1009B0004F903F902F900C9418040F931F93CF9358
:1009C000DF93EC01423018F08C8188608C834F8378
:1009D0006887222329F0413019F48C8184608C834C
:1009E00064E670E080E090E00E940F096C8164FD95
:1009F00031C0E881F9810284F385E02D42E063E0B3
:100A0000CE0109958BE496E40197F1F7E881F9812D
:100A10000284F385E02D42E063E0CE01099503E511
:100A200012E0C8010197F1F7E881F9810284F385AA
:100A3000E02D42E063E0CE010995C8010197F1F78E
:100A4000E881F9810284F385E02D42E062E0CE0185
:100A5000099517C06062CE010E9473038BE496E48F
:100A60000197F1F76C816062CE010E94730303E588
:100A700012E0C8010197F1F76C816062CE010E941B
:100A80007303C8010197F1F76C816062CE010E9487
:100A900073038BEE90E00197F1F784E08D836CE0B7
:100AA000CE010E947303CE010E947B0382E08E83FD
:100AB00066E0CE010E947303E881F9810084F1852C
:100AC000E02D6FEFCE01DF91CF911F910F9109942F
:100AD000EF92FF920F931F93CF93DF93EC01062FBA
:100AE000F42EE22E8B85888B1092100210920F024A
:100AF0001092390210925B021092370211E01093AB
:100B000036021092110261E082E10E94A00861E0C9
:100B100083E10E94A0088091B9008E7F8093B90084
:100B20008091B9008D7F8093B90088E48093B800EC
:100B300085E48093BC0088891093380280935A0220
:100B40001092390210925B020E94430891E08111D9
:100B500090E0998B992329F082E193E00E94EF00C5
:100B60008E878989882339F01F861C8260E0CE0138
:100B70000E960E94C6012E2D4F2D602FCE01DF91C3
:100B8000CF911F910F91FF90EF900C94DD041F9275
:100B90000F920FB60F9211242F933F934F935F93B1
:100BA0006F937F938F939F93AF93BF93EF93FF9335
:100BB0008091B900887F803609F49CC068F588323E
:100BC00009F45BC090F4803109F454C038F48823F0
:100BD00009F4F6C0883009F44DC0F6C0883109F434
:100BE0004CC0803209F45DC0EFC0803409F468C0A5
:100BF00048F4803309F455C0883309F0E5C0809388
:100C00003502D8C0803509F44FC0883509F45DC07D
:100C1000883409F0D9C0D6C0883909F4C7C0A8F40F
:100C2000883709F467C038F4883609F463C0803720
:100C300009F460C0C9C0883809F4B8C0803909F423
:100C40005FC0803809F0C0C05BC0803B09F486C03B
:100C500038F4803A09F466C0883A09F47FC0B4C019
:100C6000803C09F4A7C0883C09F4A4C0883B09F47F
:100C70008AC0AAC08091120210C090913402809163
:100C80003302981770F5E091340281E08E0F809363
:100C90003402F0E0ED5EFD4F80818093BB0085EC77
:100CA00086C0809335028EC0E091340281E08E0FC1
:100CB000809334028091BB00F0E0ED5EFD4F8083B5
:100CC00090913402809133026EC0E091340281E051
:100CD0008E0F809334028091BB00F0E0ED5EFD4FFB
:100CE00080838091360281116DC081E08093110272
:100CF00084EA61C083E08093370210920E02CFCF66
:100D000080910E02803208F051C0E0910E0281E025
:100D10008E0F80930E028091BB00F0E0E251FE4FF7
:100D20008083BDCF85EC8093BC0010923702809108
:100D30000E02803230F4E0910E02F0E0E251FE4FFC
:100D4000108260910E0270E0E091EC01F091ED01F3
:100D50008EEE91E0099510920E0236C084E08093E9
:100D600037021092EB011092EA01E091E801F09154
:100D7000E90109958091EA01811105C081E0809324
:100D8000EA011092C801E091EB0181E08E0F80939F
:100D9000EB01F0E0E853FE4F80818093BB0090911F
:100DA000EB018091EA01981708F479CF85E88093E8
:100DB000BC000AC085EC8093BC001092370204C0CE
:100DC000109235020E940601FF91EF91BF91AF9101
:100DD0009F918F917F916F915F914F913F912F9153
:100DE0000F900FBE0F901F90189590E0FC01EC55EE
:100DF000FF4F2491FC01E057FF4F8491882399F025
:100E000090E0880F991FFC01EA57FF4FA591B4911C
:100E1000FC01E458FF4F859194918FB7F894EC91C1
:100E2000E22BEC938FBF08953FB7F8948091230392
:100E300090912403A0912503B091260326B5A89B89
:100E400005C02F3F19F00196A11DB11D3FBFBA2F5C
:100E5000A92F982F8827820F911DA11DB11DBC01BC
:100E6000CD0142E0660F771F881F991F4A95D1F781
:100E70000895CF92DF92EF92FF920F931F93CF933B
:100E8000DF936C017A018B01C0E0D0E0CE15DF0565
:100E900089F0D8016D918D01D601ED91FC91019001
:100EA000F081E02DC6010995892B11F47E0102C065
:100EB0002196ECCFC701DF91CF911F910F91FF9049
:100EC000EF90DF90CF9008958CE592E00E94A9000A
:100ED00021E0892B09F420E0822F0895009769F022
:100EE000FC0101900020E9F73197AF01481B590B35
:100EF000BC0189EF92E00C94390780E090E00895FE
:100F00000E94FC0E0C946E07E091F902F091FA0237
:100F10000190F081E02D682F89EF92E00994CF9342
:100F2000DF93CDB7DEB728970FB6F894DEBF0FBEBC
:100F3000CDBF1D8290E49E8324E12F8324E5288782
:100F400019829A8390E19B8390E59C832091000312
:100F5000821710F08FEF820F3091010390E0FE01B5
:100F6000E80FF91F303121F4243011F4618101C000
:100F70006581606889EF92E028960FB6F894DEBF2D
:100F80000FBECDBFDF91CF910C9473038F929F92D0
:100F9000AF92BF92CF92DF92EF92FF920F931F9387
:100FA000CF93DF93CDB7DEB7A1970FB6F894DEBF2E
:100FB0000FBECDBF6C01990FEE08FF08F7FE29C0E8
:100FC0008DE20E9484078C0122273327A9012C1966
:100FD0003D094E095F0919A2CE0181967C019AE074
:100FE000892E912CA12CB12CCA01B901A501940123
:100FF0000E94930D605DF70162937F012115310519
:101000004105510589F7CF010E946E07800F911F9E
:101010001DC0A701960119A28E010F5D1F4F8AE026
:10102000C82ED12CE12CF12CCA01B901A7019601DF
:101030000E94930D605DF80162938F0121153105C7
:101040004105510589F7CF010E946E07A1960FB6A1
:10105000F894DEBF0FBECDBFDF91CF911F910F91EE
:10106000FF90EF90DF90CF90BF90AF909F908F90C8
:10107000089562E089EF92E00E9473038BE39FE1A1
:101080000197F1F7089520915B0290915A02213265
:1010900008F04AC0809137028111FCCF32E03093D2
:1010A000370231E0309336023FEF30933502109231
:1010B000340220933302AAE3B2E043E152E0FA01A2
:1010C0003E2F341B321718F43D913193F9CF109213
:1010D000120220911202990F922B9093120290917A
:1010E0001102913061F410921102909112029093CA
:1010F000BB009091BC0093FDF8CF95EC01C095EE3C
:101100009093BC00909137029230E1F390913502B8
:101110009F3F79F080913502803241F08091350215
:10112000803331F084E005C081E003C082E001C07B
:1011300083E01092390210925B02109238020895F7
:1011400090E0FC01E859FF4F3491FC01EC55FF4F52
:101150002491FC01E057FF4FE491EE2309F43BC0DA
:10116000332339F1333091F038F43130A9F0323093
:1011700001F584B58F7D12C0373091F03830A1F081
:101180003430B9F4809180008F7D03C0809180005D
:101190008F77809380000DC084B58F7784BD09C0A0
:1011A0008091B0008F7703C08091B0008F7D8093D5
:1011B000B000F0E0EE0FFF1FE458FF4FA591B4918F
:1011C0008FB7F894EC91611103C020952E2301C0D4
:1011D0002E2B2C938FBF08950F931F93CF93DF93E4
:1011E000C7E0D0E0082F10E0B8010C2E02C07595C2
:1011F00067950A94E2F76170772788E00E94A0085B
:1012000061E086E00E94A00860E086E00E94A008FD
:10121000219750F7DF91CF911F910F9108958F92F1
:101220009F92AF92BF92CF92DF92EF92FF926B01AB
:101230007C010E9414074B015C01C114D104E1043C
:10124000F104F1F00E941407DC01CB01881999091F
:10125000AA09BB09883E9340A105B10570F321E0BE
:10126000C21AD108E108F10888EE880E83E0981EC2
:10127000A11CB11CC114D104E104F10419F7DDCFA4
:10128000FF90EF90DF90CF90BF90AF909F908F90A6
:1012900008951F920F920FB60F9211242F933F9330
:1012A0008F939F93AF93BF9380911F0390912003DF
:1012B000A0912103B091220330911E0323E0230F5C
:1012C0002D3720F40196A11DB11D05C026E8230F7E
:1012D0000296A11DB11D20931E0380931F039093BE
:1012E0002003A0932103B0932203809123039091C4
:1012F0002403A0912503B09126030196A11DB11DE1
:101300008093230390932403A0932503B093260393
:10131000BF91AF919F918F913F912F910F900FBEF1
:101320000F901F9018951F920F920FB60F921124D5
:101330002F933F934F935F936F937F938F939F93DD
:10134000AF93BF93EF93FF938CE592E00E948802E6
:10135000FF91EF91BF91AF919F918F917F916F918D
:101360005F914F913F912F910F900FBE0F901F9063
:101370001895ECE5F2E01382128288EE93E0A0E08B
:10138000B0E084839583A683B78320E231E0318384
:10139000208325EC30E03587248724EC30E0378744
:1013A000268720EC30E0318B208B21EC30E0338B32
:1013B000228B22EC30E0358B248B26EC30E0378B0F
:1013C000268B118E128E138E148EE9EFF2E01382AB
:1013D000128220E331E031832083108A2FEF2787A8
:1013E0001686118A20E223871486158612861186B6
:1013F00030E4328B238B20E1248B21E0258B22E00B
:10140000268B24E0278B28E0208FE2E1F3E0138293
:10141000128284839583A683B78380E491E09183CD
:101420008083EDE3F3E010821182128213828FEF4A
:101430009FEF9583848382E1E3E4F3E0DF011D9273
:101440008A95E9F784E2E5E5F3E0DF011D928A95EC
:10145000E9F710927D03E7E2F3E011821082138234
:101460001282108A17860895CF93DF93CDB7DEB727
:1014700068970FB6F894DEBF0FBECDBF789484B5E1
:10148000826084BD84B5816084BD85B5826085BD80
:1014900085B5816085BD80916E00816080936E000E
:1014A0001092810080918100826080938100809100
:1014B00081008160809381008091800081608093B1
:1014C00080008091B10084608093B1008091B00071
:1014D00081608093B00080917A00846080937A006C
:1014E00080917A00826080937A0080917A00816096
:1014F00080937A0080917A00806880937A001092BD
:10150000C100E0916C02F0916D0282E08083E09175
:101510006802F09169021082E0916A02F0916B0218
:101520008FEC808310927402E0917002F09171024E
:1015300086E08083E0916E02F0916F02808180618D
:101540008083E0916E02F0916F02808188608083D9
:10155000E0916E02F0916F02808180688083E0915B
:101560006E02F0916F0280818F7D808386E00E9401
:10157000F50687E00E94F50688E00E94F50620E067
:1015800044E060E189EF92E00E9468058CE393E01B
:1015900090937C0380937B0387E293E090937A039C
:1015A000809379036CE373E00E945C04212C312C5E
:1015B000210123942FB7F89480911F039091200369
:1015C000A0912103B09122032FBF80933D039093FC
:1015D0003E03A0933F03B093400381E480937C00DB
:1015E00080917A00806480937A0080917A0086FDF1
:1015F000FCCF809178002091790090E0922B863981
:10160000910524F18A3F910524F18E3521E092075E
:101610001CF1823C31E0930714F1863242E09407DA
:101620000CF18A3852E0950704F1883FA2E09A074E
:10163000FCF08C35B3E09B07F4F051E040E08A3CCD
:1016400093400CF050E0252F342F17C02FEF3FEFC1
:1016500014C028E030E011C027E030E00EC026E0E2
:1016600030E00BC025E030E008C024E030E005C0E9
:1016700023E030E002C022E030E0309342032093C8
:1016800041032F3FFFEF3F0709F49EC0F901EE0F22
:10169000FF1FED5BFC4F80819181019709F4DBC155
:1016A000253031059CF480917D0381116CC000913F
:1016B000790310917A03D8018D919C911197281785
:1016C000390709F460C02D933C9331C025303105B2
:1016D000A9F480917D030091790310917A0381111F
:1016E0002DC0F8018281938101968830910519F40B
:1016F000138212821CC09383828319C02630310565
:1017000009F0B2C180917D030091790310917A03B1
:10171000F801811129C082819381019797FFEBCF56
:10172000E7E0F0E0D8011396FC93EE931297C8011E
:101730000E943903C8010E94180425C0D8011F96D1
:101740008D919C915097019650969C938E931F97E4
:1017500018962D913C911997281739078CF45096BB
:101760001C921E921F970CC0878590890197908BC1
:10177000878797FF05C0808591850197908B878724
:10178000C8010E9483038091410390914203FC01B0
:10179000EE0FFF1FEE0FFF1FEB5AFC4F40913D0372
:1017A00050913E0360913F03709140034083518309
:1017B00062837383880F991FFC01ED5BFC4F81E00E
:1017C00090E09183808347C1E3E4F3E000E010E020
:1017D00081919191019709F038C10830110509F004
:1017E00019C180917D038111E8C080913D039091E2
:1017F0003E03A0913F03B091400340917503509187
:1018000076036091770370917803841B950BA60B88
:10181000B70B893B2BE09207A105B10508F4B7C0CF
:101820008090790390907A0389EF92E00E947B0385
:101830000E9439088DE691E00E94820764EF71E012
:1018400080E090E00E940F09E12CF12C60E0C701DC
:101850000E9412033FEFE31AF30AE11444E0F40696
:10186000A9F786E1E6E0F1E0DE01119601900D9224
:101870008A95E1F76BE082E090E00E9412039E01FE
:101880002F5F3F4F388F2F8B68ECE62EF12CAF89FE
:10189000B88DCD90DD90B88FAF8B37015601F60132
:1018A00001900020E9F73197CF018C199D0995012E
:1018B0002C193D092817390750F4F50161915F0192
:1018C000C3010E941203FFEF6F1A7F0AE8CF60E0A6
:1018D0008E0D9F1D0E9412032AE0E20EF11C36E3DA
:1018E000E31631E0F30699F682E090E00E94010FE2
:1018F000E82EF12CC12CD12C55E0B52ECE14DF04EE
:10190000ECF519821A82F60133E0F595E7953A95E0
:10191000E1F741E050E04C0F5D1FE40FF51FC601F9
:1019200087709927A201910104C0220F331F441F21
:10193000551F8A95D2F7DA01C9012081822B808355
:10194000C60165E070E00E947F0DB69E3001B79E33
:10195000700C1124680E791E32E3630E711C660C44
:10196000771C6981C3010E9412036A81C301019639
:101970000E9412034FEFC41AD40AC0CFD40151966B
:101980006D917C915297C4010E945C0443C0893ED2
:101990009340A105B105F0F181E080937D03E091D2
:1019A0007903F0917A03108A17868481958196874E
:1019B0008587CF010E9483032DC010927D03C090C4
:1019C0007903D0907A03D6011D96AD90BC901E97F6
:1019D00012968D919C91139725E0289F7001299F65
:1019E000F00C11248D919C91E80EF91EB2E3EB0EE0
:1019F000F11CEE0CFF1CF5016081C7010E9412036F
:101A0000D50111966C91C70101960E941203C6017F
:101A10000E941804F801EE0FFF1FEE0FFF1FEB5A94
:101A2000FC4F80913D0390913E03A0913F03B09104
:101A3000400380839183A283B383000F111FF801B9
:101A4000ED5BFC4F1182108206C00F5F1F4F093003
:101A5000110509F0BDCE65E070E080E090E00E94E5
:101A60000F090E94B500A6CD2730310509F08BCEB5
:101A700080917D03882309F486CE0091790310912B
:101A80007A03D8011F96FC911F975096EC918F2FE7
:101A90009E2F68E070E00E947F0D482F2F2F3E2F71
:101AA00037FF02C0295F3F4FF3E035952795FA9540
:101AB000E1F7D8011D96ED91FC911E97E20FF31FFF
:101AC0009081292F30E002C0359527958A95E2F75D
:101AD0007201610104C0CC0CDD1CEE1CFF1C4A9598
:101AE000D2F7B701A60120FD03C0492B408303C0F4
:101AF000409594239083C8010E94140341CE97FB24
:101B0000072E16F4009407D077FD09D00E94B50D7A
:101B100007FC05D03EF4909581959F4F08957095F0
:101B200061957F4F0895A1E21A2EAA1BBB1BFD01F0
:101B30000DC0AA1FBB1FEE1FFF1FA217B307E407AC
:101B4000F50720F0A21BB30BE40BF50B661F771F04
:101B5000881F991F1A9469F76095709580959095E4
:101B60009B01AC01BD01CF010895AA1BBB1B51E134
:101B700007C0AA1FBB1FA617B70710F0A61BB70BFD
:101B8000881F991F5A95A9F780959095BC01CD01A2
:101B90000895EE0FFF1F0590F491E02D0994CF9367
:101BA000DF938230910510F482E090E0E0918003B1
:101BB000F091810320E030E0C0E0D0E0309711F1F7
:101BC0004081518148175907C0F04817590761F4FF
:101BD00082819381209719F09B838A832BC09093F5
:101BE00081038093800326C02115310519F0421727
:101BF000530718F49A01BE01DF01EF010280F3815F
:101C0000E02DDCCF2115310509F1281B390B2430DB
:101C1000310590F412968D919C9113976115710581
:101C200021F0FB019383828304C09093810380930E
:101C30008003FD01329644C0FD01E20FF31F819342
:101C40009193225031092D933C933AC020917E0309
:101C500030917F03232B41F4209102013091030145
:101C600030937F0320937E03209100013091010186
:101C70002115310541F42DB73EB740910401509133
:101C80000501241B350BE0917E03F0917F03E217E1
:101C9000F307A0F42E1B3F0B2817390778F0AC018F
:101CA0004E5F5F4F2417350748F04E0F5F1F50936C
:101CB0007F0340937E038193919302C0E0E0F0E0C4
:101CC000CF01DF91CF9108950F931F93CF93DF93AF
:101CD000009709F48CC0FC013297138212820091A4
:101CE0008003109181030115110581F42081318158
:101CF000820F931F20917E0330917F0328173907AD
:101D000079F5F0937F03E0937E0371C0D80140E042
:101D100050E0AE17BF0750F412962D913C911397E7
:101D2000AD012115310509F1D901F3CF9D01DA018A
:101D30003383228360817181860F971F82179307F7
:101D400069F4EC0128813981260F371F2E5F3F4F40
:101D5000318320838A819B8193838283452B29F45D
:101D6000F0938103E093800342C01396FC93EE93BB
:101D70001297ED01499159919E01240F351FE217E9
:101D8000F30771F480819181840F951F029611965B
:101D90009C938E938281938113969C938E9312973A
:101DA000E0E0F0E0D80112968D919C911397009796
:101DB00019F0F8018C01F6CF8D919C9198012E5F5E
:101DC0003F4F820F931F20917E0330917F0328178E
:101DD000390769F4309729F4109281031092800337
:101DE00002C01382128210937F0300937E03DF915F
:101DF000CF911F910F91089581E090E0F8940C9499
:101E0000170FF999FECF92BD81BDF89A992780B539
:101E10000895262FF999FECF1FBA92BD81BD20BD2E
:101E20000FB6F894FA9AF99A0FBE01960895F894AD
:021E3000FFCFE2
:101E320000008203800073017B018301870190010E
:101E420099019F01A701AE01B501BE01000000008A
:101E5200A9023907A90087009B00F00200000000D8
:101E6200D30039076805BF003C021B0200000000D6
:101E720068013801FE00EF00E100E0002D004F4E46
:101E8200004F46460042414E4B20003A0050524F0E
:101E92004752414D204D4F4445002E20005245539C
:101EA2004554005475626553637200426F6F7374D8
:101EB20065720052415400546F6E65426E64720046
:101EC200436F6D70726573730044656C6179005481
:101ED20072656D6F6C6F0043686F72757300526547
:101EE2007665726200456E76656C6F7065004E6F46
:081EF200697365476174650026
:00000001FF
